:10098A00524649442042617365642041636365733A
:10099A007300436F6E74726F6C2053797374656D54
:1009AA000047726F7570203500433030362C433063
:1009BA0031362C43303333005363616E20596F75DF
:1009CA007220436172643A0052666964204E6F2E47
:1009DA002069733A00313030333541443835364373
:1009EA00310020417574686F726973656400204D27
:1009FA00616E7961200031363030414443333639F3
:100A0A00413100204D616E7369200031363030412A
:100A1A0042434431343741002050757261762000D8
:100A2A00554E415554484F524953454400547279E2
:0E0A3A0020416E6F7468657220436172640023
:030C4000011C0094
:100B43007FC87E00120B5BD2A4C2A37F2C0E120BB4
:080B53005BC2A4C2A37FC81E0F
:100B5B00E4FDFCC3ED9FEE6480F8EC6480985015C7
:100B6B00E4FBFA0BBB00010ABA04F8BBFBF50DBDA5
:050B7B0000010C80DE0A
:010B80002252
:100C0B00D290C291D2927F057E00120B5BC29222D0
:100BF800A907E954F0F590120C0BE9C454F0F590EC
:030C0800020C0BD0
:0E0C1B00C290D2927F057E00120B5BC2922225
:090BAF007FC87E00120B5B7F0180
:100BB800A907E954F0F590120C1BE9C454F0F5901C
:030BC800020C1B01
:0B0B81007F01120BB87BFF7A0979ECB2
:100B8C008B508A518952AB50AA51A952120BCBFFF0
:100B9C006010120BF874012552F552E43551F551E1
:030BAC0080E422C0
:100BE4007F02120BB87F28120BB87F0E120BB87F4E
:040BF40001020BB837
:0C0C2900758920759850758DFDD28E22C3
:0B0C35003098FD85991CC298AF1C226E
:10080000D2A6120C29120BE47BFF7A09798A120B0B
:100810008C7FC0120BB87BFF7A09799C120B8C7FFE
:10082000F47E01120B5B120BE47BFF7A0979AB12A9
:100830000B8C7FC0120BB87BFF7A0979B3120B8C3B
:100840007F907E01120B5B7F01120BB87BFF7A0950
:1008500079C2120B8C7FC0120BB8E4F54FF54F1222
:100860000C357409254FF8A607054FC3E54F648082
:10087000948C40EB7409254FF8E4F67F01120BB815
:100880007BFF7A0979D2120B8C7FC0120BB8E4F58A
:100890004F7409254FF8E6FF120BF8054FC3E54FDB
:1008A0006480948C40EB7F647E00120B5B7553FF79
:1008B0007554097555DF75560075570C7B007A0025
:1008C0007909120AD4EF70210517E5177002051691
:1008D000120B81120BAF7BFF7A0979F8120B8C1285
:1008E0000B43C2A4D2A30208477553FF75540A757F
:1008F000550075560075570C7B007A007909120A6D
:10090000D4EF70160519E51970020518120B811243
:100910000BAF7BFF7A0A790D802F7553FF75540A50
:1009200075551575560075570C7B007A00790912BC
:100930000AD4EF702B051BE51B7002051A120B8100
:10094000120BAF7BFF7A0A7922120B8C120B43C277
:10095000A4D2A37F2C0E120B5BC2A4C2A302084731
:100960007F01120BB87BFF7A0A792A120B8C7FC0A9
:10097000120BB87BFF7A0A7937120B8CC2A67F2C38
:0A0980007E01120B5BD2A6020847AD
:03000000020A48A9
:0C0A4800787FE4F6D8FD758157020A8F14
:100BCB00BB010689828A83E0225002E722BBFE0228
:090BDB00E32289828A83E493225B
:100AD4008B508A518952AB53AA54A955120BCBFEA1
:100AE400AB50AA51A952120BCBFF6E702BEF600DC5
:100AF400E55715577002155614455670037F0022AA
:100B040074012552F552E43551F55174012555F51A
:100B140055E43554F55480BEAB50AA51A952120B7A
:100B2400CBFDD3EE6480F8ED64809840037F01220E
:0F0B3400AB53AA54A955120BCBFFC3ED9FFF2261
:100A5400020800E493A3F8E493A34003F68001F2B0
:100A640008DFF48029E493A3F85407240CC8C333A3
:100A7400C4540F4420C8834004F456800146F6DF72
:100A8400E4800B0102040810204080900C40E47EB6
:100A9400019360BCA3FF543F30E509541FFEE49367
:100AA400A360010ECF54C025E060A840B8E493A32E
:100AB400FAE493A3F8E493A3C8C582C8CAC583CA59
:100AC400F0A3C8C582C8CAC583CADFE9DEE780BE11
:010C430000B0
:00000001FF
